:020000040800F2
:1000000000000220F91E0008451E0008511E0008CD
:10001000571E00085D1E0008631E00080000000057
:10002000000000000000000000000000691E000841
:10003000751E000800000000811E00088D1E0008CB
:10004000491F0008491F0008491F0008491F0008F0
:10005000491F0008491F0008491F0008491F0008E0
:10006000491F0008491F0008491F0008491F0008D0
:10007000491F0008491F0008491F0008491F0008C0
:10008000491F0008491F0008491F00080000000020
:10009000000000000000000000000000491F0008F0
:1000A000491F0008491F0008491F0008491F000890
:1000B000491F0008491F0008491F0008491F000880
:1000C000491F0008491F0008491F0008491F000870
:1000D000491F0008491F0008491F000800000000D0
:1000E000491F0008491F0008491F000800000000C0
:1000F000000000000000000000000000491F000890
:1001000000000000491F0008491F0008491F00089F
:1001100000000000000000000000000000000000DF
:10012000491F0008491F0008491F0008491F00080F
:10013000491F00080000000000000000000000004F
:10014000000000000000000000000000491F00083F
:10015000491F0008491F0008491F0008491F0008DF
:10016000491F0008491F00080000000000000000AF
:10017000000000000000000000000000000000007F
:1001800000000000491F00080000000000000000FF
:08019000491F0008491F000887
:1001980010B5054C237833B9044B13B10448AFF3B9
:1001A80000800123237010BD0C0000200000000017
:1001B800941F000808B5034B1BB103490348AFF36C
:1001C800008008BD0000000010000020941F0008F7
:1001D80053B94AB9002908BF00281CBF4FF0FF31A6
:1001E8004FF0FF3000F072B9ADF1080C6DE904CEA4
:1001F80000F006F8DDF804E0DDE9022304B07047FA
:100208002DE9F047089E04468846002B4BD18A42C8
:10021800154667D9B2FA82F24AB1C2F1200701FA4B
:1002280002F320FA07F7954047EA030894404FEA9B
:10023800154E230CB8FBFEF71FFA85FC0EFB17883A
:1002480043EA084307FB0CF1994209D9EB1807F177
:10025800FF3080F01B81994240F21881023F2B4405
:100268005B1AA4B2B3FBFEF00EFB103344EA03445E
:1002780000FB0CFCA44509D92C1900F1FF3380F0D0
:100288000781A44540F2048102382C4440EA074023
:10029800A4EB0C0400271EB1D4400023C6E9004398
:1002A8003946BDE8F0878B4209D9002E00F0EB8073
:1002B8000027C6E9000138463946BDE8F087B3FA99
:1002C80083F7002F47D18B4202D3824200F2FA8093
:1002D800841A61EB030301209846002EE0D0C6E99A
:1002E8000048DDE702B9FFDEB2FA82F2002A40F0E8
:1002F8008F80491B4FEA154E1FFA85F80127B1FB7D
:10030800FEFC230C0EFB1C1143EA014308FB0CF115
:10031800994207D9EB180CF1FF3002D2994200F24A
:10032800CD808446591AA3B2B1FBFEF00EFB10141F
:1003380043EA044408FB00F8A04507D92C1900F14A
:10034800FF3302D2A04500F2B6801846A4EB080499
:1003580040EA0C409FE7C7F1200CBB4022FA0CFE94
:100368004EEA030E01FA07F420FA0CF521FA0CF311
:100378004FEA1E482543B3FBF8F92C0C08FB193348
:100388001FFA8EFA44EA034309FB0AF49C4202FA74
:1003980007F200FA07F10BD91EEB030309F1FF304E
:1003A80080F087809C4240F28480A9F1020973445E
:1003B8001B1BADB2B3FBF8F008FB103345EA03444E
:1003C80000FB0AFAA24508D91EEB040400F1FF332A
:1003D8006BD2A24569D90238744440EA0940A0FBAF
:1003E8000289A4EB0A044C45C2464B4654D351D06B
:1003F800002E69D0B1EB0A0564EB030404FA0CFC87
:10040800FD40FC404CEA0505C6E90054002747E7D3
:10041800C2F1200320FA03F7954001FA02F021FA0D
:1004280003F34FEA154E3843010CB3FBFEF71FFAEE
:1004380085F80EFB173341EA034107FB08F38B42AB
:1004480004FA02F407D9691807F1FF3C2FD28B424E
:100458002DD9023F2944CB1A81B2B3FBFEF00EFB23
:10046800103341EA034100FB08F38B4207D96918AE
:1004780000F1FF3C17D28B4215D902382944C91A1A
:1004880040EA07473BE73746304609E70746E7E6CD
:100498001846FBE64145ABD2B8EB020A69EB0E02FF
:1004A80001381346A4E76046E9E7184695E767462A
:1004B800D1E781467CE702382C4447E7ACF1020CCF
:1004C8002B442FE7384608E73746E9E6704700BF70
:1004D80080B500AF0E4B1B680D4A43F400731360E0
:1004E8000B4B1B680A4A43F480631360084B1B6874
:1004F800074A43F480731360032000F029F90020B1
:1005080000F008F801F0F0FB0023184680BD00BF9A
:10051800003C024080B582B000AF7860124B1A6888
:10052800124B1B7819464FF47A73B3FBF1F3B2FB05
:10053800F3F3184600F033F90346002B01D00123EA
:100548000EE07B680F2B0AD8002279684FF0FF3045
:1005580000F009F9064A7B681360002300E00123D4
:1005680018460837BD4680BD08000020040000205A
:100578000000002080B400AF054B1B781A46054BDD
:100588001B681344034A136000BFBD4680BC704714
:10059800040000202800002080B400AF024B1B6834
:1005A8001846BD4680BC70472800002080B584B03E
:1005B80000AF7860FFF7F0FFB8607B68FB60FB680E
:1005C800B3F1FF3F05D0094B1B781A46FB6813446B
:1005D800FB6000BFFFF7E0FF0246BB68D31AFA686A
:1005E8009A42F7D800BF1037BD4680BD04000020EE
:1005F80080B485B000AF78607B6803F00703FB60C8
:100608000C4BDB68BB60BA684FF6FF031340BB6056
:10061800FB681A02BB68134343F0BF6343F400331B
:10062800BB60044ABB68D36000BF1437BD4680BCBA
:10063800704700BF00ED00E080B400AF044BDB68FA
:100648001B0A03F007031846BD4680BC704700BF6D
:1006580000ED00E080B483B000AF03463960FB7161
:1006680097F90730002B0BDA3B68DAB20C49FB79B3
:1006780003F00F03043B1201D2B20B441A7609E0CF
:100688003B68DAB2074997F907301201D2B20B4436
:1006980083F8002300BF0C37BD4680BC704700BFFD
:1006A80000ED00E000E100E080B489B000AFF86040
:1006B800B9607A60FB6803F00703FB61FB69C3F16B
:1006C8000703042B28BF0423BB61FB690433062BF3
:1006D80002D9FB69033B00E000237B614FF0FF3246
:1006E800BB6902FA03F3DA43BB681A407B699A4094
:1006F8004FF0FF317B6901FA03F3D9437B680B4064
:10070800134318462437BD4680BC704780B582B075
:1007180000AF78607B68013BB3F1807F01D3012390
:100728000FE00A4A7B68013B53600F214FF0FF300E
:10073800FFF790FF054B00229A60044B07221A60CE
:10074800002318460837BD4680BD00BF10E000E012
:1007580080B582B000AF78607868FFF749FF00BFC6
:100768000837BD4680BD80B586B000AF0346B96086
:100778007A60FB7300237B61FFF75EFF78617A681C
:10078800B9687869FFF790FF024697F90F3011466C
:100798001846FFF75FFF00BF1837BD4680BD80B51C
:1007A80082B000AF78607868FFF7B0FF034618465C
:1007B8000837BD4680BD000080B483B000AF7860C4
:1007C8007B68042B06D1094B1B68084A43F00403D5
:1007D800136005E0054B1B68044A23F0040313600B
:1007E80000BF0C37BD4680BC704700BF10E000E07A
:1007F80080B500AF00F002F800BF80BD80B400AF44
:1008080000BFBD4680BC704780B489B000AF786037
:10081800396000237B6100233B610023BB61002317
:10082800FB6159E10122FB6902FA03F37B613B6832
:100838001B687A6913403B613A697B699A4240F0C8
:1008480048813B685B68022B03D03B685B68122BCE
:1008580023D1FB69DA087B68083253F82230BB6180
:10086800FB6903F007039B000F2202FA03F3DB4343
:10087800BA691340BB613B681A69FB6903F0070357
:100888009B0002FA03F3BA691343BB61FB69DA08F8
:100898007B680832B96943F822107B681B68BB6122
:1008A800FB695B00032202FA03F3DB43BA691340D6
:1008B800BB613B685B6803F00302FB695B0002FAFB
:1008C80003F3BA691343BB617B68BA691A603B6872
:1008D8005B68012B0BD03B685B68022B07D03B6839
:1008E8005B68112B03D03B685B68122B30D17B68A7
:1008F8009B68BB61FB695B00032202FA03F3DB43DD
:10090800BA691340BB613B68DA68FB695B0002FAAD
:1009180003F3BA691343BB617B68BA699A607B6861
:100928005B68BB610122FB6902FA03F3DB43BA6926
:100938001340BB613B685B681B0903F00102FB695C
:1009480002FA03F3BA691343BB617B68BA695A6058
:100958007B68DB68BB61FB695B00032202FA03F377
:10096800DB43BA691340BB613B689A68FB695B006B
:1009780002FA03F3BA691343BB617B68BA69DA60A8
:100988003B685B6803F08053002B00F0A2800023D3
:10099800FB60564B5B6C554A43F480435364534B9E
:1009A8005B6C03F48043FB60FB68514AFB699B085E
:1009B800023352F82330BB61FB6903F003039B0049
:1009C8000F2202FA03F3DB43BA691340BB617B6869
:1009D800484A934219D07B68474A934213D07B68B0
:1009E800464A93420DD07B68454A934207D07B68BC
:1009F800444A934201D1042308E0072306E0032375
:100A080004E0022302E0012300E00023FA6902F077
:100A1800030292009340BA691343BB613449FB69EE
:100A28009B080233BA6941F82320374B1B68BB6126
:100A38003B69DB43BA691340BB613B685B6803F4FD
:100A48008033002B03D0BA693B691343BB612E4A3C
:100A5800BB6913602C4B5B68BB613B69DB43BA69BC
:100A68001340BB613B685B6803F40033002B03D081
:100A7800BA693B691343BB61234ABB695360224B84
:100A88009B68BB613B69DB43BA691340BB613B6848
:100A98005B6803F48013002B03D0BA693B691343E6
:100AA800BB61194ABB699360174BDB68BB613B6943
:100AB800DB43BA691340BB613B685B6803F400130E
:100AC800002B03D0BA693B691343BB610E4ABB696B
:100AD800D360FB690133FB61FB690F2B7FF6A2AE84
:100AE80000BF2437BD4680BC704700BF00380240B5
:100AF80000380140000002400004024000080240A3
:100B0800000C024000100240003C014080B483B059
:100B180000AF78600B467B8013467B707B78002B98
:100B280003D07A887B689A6103E07B881A047B6823
:100B38009A6100BF0C37BD4680BC704780B586B04F
:100B480000AF78607B68002B01D101232DE27B6820
:100B58001B6803F00103002B75D0A34B9B6803F0BF
:100B68000C03042B0CD0A04B9B6803F00C03082B40
:100B780012D19D4B5B6803F48003B3F5800F0BD152
:100B8800994B1B6803F40033002B5BD07B685B68D0
:100B9800002B57D1012308E27B685B68B3F5803FDF
:100BA80006D1914B1B68904A43F4803313601DE0D3
:100BB8007B685B68B3F5A02F0CD18B4B1B688A4A06
:100BC80043F480231360884B1B68874A43F48033BF
:100BD80013600BE0844B1B68834A23F48033136053
:100BE800814B1B68804A23F4802313607B685B6811
:100BF800002B13D0FFF7D0FC386108E0FFF7CCFCDE
:100C080002463B69D31A642B01D90323CDE1764B05
:100C18001B6803F40033002BF0D014E0FFF7BCFC92
:100C2800386108E0FFF7B8FC02463B69D31A642B29
:100C380001D90323B9E16C4B1B6803F40033002B83
:100C4800F0D100E000BF7B681B6803F00203002BB3
:100C580063D0654B9B6803F00C03002B0BD0624BF1
:100C68009B6803F00C03082B1CD15F4B5B6803F4F3
:100C78008003002B16D15C4B1B6803F00203002B8A
:100C880005D07B68DB68012B01D001238DE1564B31
:100C98001B6823F0F8027B681B69DB005249134389
:100CA8000B603AE07B68DB68002B20D04F4B0122B9
:100CB8001A60FFF771FC386108E0FFF76DFC024627
:100CC8003B69D31A022B01D903236EE1464B1B68FB
:100CD80003F00203002BF0D0434B1B6823F0F8020B
:100CE8007B681B69DB00404913430B6015E03F4BF1
:100CF80000221A60FFF750FC386108E0FFF74CFC4F
:100D080002463B69D31A022B01D903234DE1364B26
:100D18001B6803F00203002BF0D17B681B6803F00B
:100D28000803002B30D07B685B69002B16D0304B52
:100D380001221A60FFF730FC386108E0FFF72CFC4D
:100D480002463B69D31A022B01D903232DE1264B16
:100D58005B6F03F00203002BF0D015E0244B002258
:100D68001A60FFF719FC386108E0FFF715FC024626
:100D78003B69D31A022B01D9032316E11A4B5B6F87
:100D880003F00203002BF0D17B681B6803F0040317
:100D9800002B00F0A0800023FB75134B1B6C03F0A5
:100DA8008053002B0FD10023FB600F4B1B6C0E4AA6
:100DB80043F0805313640C4B1B6C03F08053FB60AF
:100DC800FB680123FB750B4B1B6803F48073002B36
:100DD80021D1084B1B68074A43F480731360FFF75F
:100DE800DBFB386111E000BF0038024000004742D9
:100DF800800E474200700040FFF7CEFB02463B6979
:100E0800D31A022B01D90323CFE06A4B1B6803F4E2
:100E18008073002BF0D07B689B68012B06D1664B52
:100E28001B6F654A43F0010313671CE07B689B68EE
:100E3800052B0CD1604B1B6F5F4A43F0040313670B
:100E48005D4B1B6F5C4A43F0010313670BE05A4B81
:100E58001B6F594A23F001031367574B1B6F564A00
:100E680023F0040313677B689B68002B15D0FFF7FA
:100E780093FB38610AE0FFF78FFB02463B69D31A00
:100E880041F28832934201D903238EE04A4B1B6F0B
:100E980003F00203002BEED014E0FFF77DFB38616E
:100EA8000AE0FFF779FB02463B69D31A41F2883220
:100EB800934201D9032378E03F4B1B6F03F00203F1
:100EC800002BEED1FB7D012B05D13B4B1B6C3A4A25
:100ED80023F0805313647B689B69002B64D0364BE6
:100EE8009B6803F00C03082B5CD07B689B69022B82
:100EF80041D1324B00221A60FFF74EFB386108E0FF
:100F0800FFF74AFB02463B69D31A022B01D9032398
:100F18004BE0294B1B6803F00073002BF0D17B6872
:100F2800DA697B681B6A1A437B685B6A9B011A4310
:100F38007B689B6A5B08013B1B041A437B68DB6A7E
:100F48001B061D4913434B601C4B01221A60FFF717
:100F580023FB386108E0FFF71FFB02463B69D31A01
:100F6800022B01D9032320E0134B1B6803F0007305
:100F7800002BF0D018E0114B00221A60FFF70CFB91
:100F8800386108E0FFF708FB02463B69D31A022BD9
:100F980001D9032309E0084B1B6803F00073002BF9
:100FA800F0D101E0012300E0002318461837BD46C0
:100FB80080BD00BF0070004000380240600047421A
:100FC80080B584B000AF786039607B68002B01D1B0
:100FD8000123CAE0674B1B6803F00F033A689A4283
:100FE8000CD9644B3A68D2B21A70624B1B6803F092
:100FF8000F033A689A4201D00123B6E07B681B6868
:1010080003F00203002B20D07B681B6803F0040365
:10101800002B05D0584B9B68574A43F4E053936024
:101028007B681B6803F00803002B05D0524B9B68B4
:10103800514A43F4604393604F4B9B6823F0F0029E
:101048007B689B684C4913438B607B681B6803F083
:101058000103002B44D07B685B68012B07D1464B0A
:101068001B6803F40033002B19D101237DE07B6852
:101078005B68022B03D07B685B68032B07D13E4B70
:101088001B6803F00073002B09D101236DE03A4B74
:101098001B6803F00203002B01D1012365E0364BE6
:1010A8009B6823F003027B685B68334913438B60BA
:1010B800FFF772FAF8600AE0FFF76EFA0246FB687B
:1010C800D31A41F28832934201D903234DE02A4BC7
:1010D8009B6803F00C027B685B689B009A42EBD12B
:1010E800244B1B6803F00F033A689A420CD2214B39
:1010F8003A68D2B21A701F4B1B6803F00F033A68A4
:101108009A4201D0012330E07B681B6803F0040396
:10111800002B08D0184B9B6823F4E0527B68DB68EF
:10112800154913438B607B681B6803F00803002B89
:1011380009D0114B9B6823F460427B681B69DB0074
:101148000D4913438B6000F01DF801460A4B9B685C
:101158001B0903F00F03094AD35C21FA03F3084A79
:1011680013600020FFF7D6F9002318461037BD4654
:1011780080BD00BF003C024000380240E81F000864
:1011880008000020F0B585B000AF00237B60002385
:10119800FB6000233B600023BB60634B9B6803F04C
:1011A8000C03042B07D0082B08D0002B40F0B48088
:1011B8005E4BBB60B3E05E4BBB60B0E05A4B5B6814
:1011C80003F03F037B60584B5B6803F48003002BFC
:1011D8004AD0554B5B689B094FF0000440F2FF1161
:1011E8004FF0000203EA010504EA020629463246E6
:1011F8004FF000034FF00004540144EAD1644B015E
:1012080019462246491B62EB06024FF000034FF0D5
:101218000004940144EA91648B015B1A64EB0204B4
:101228004FF000014FF00002E20042EA5372D90089
:101238000B4614465B1944EB06044FF000014FF0CF
:101248000002620242EAD35259020B46144618467B
:1012580021467B684FF000041A462346FEF7B8FF84
:1012680003460C46FB6049E02F4B5B689B094FF037
:10127800000440F2FF114FF0000203EA010504EAFE
:101288000206294632464FF000034FF0000454018D
:1012980044EAD1644B0119462246491B62EB060217
:1012A8004FF000034FF00004940144EA91648B016D
:1012B8005B1A64EB02044FF000014FF00002E200F9
:1012C80042EA5372D9000B4614465B1944EB0604F4
:1012D8004FF000014FF00002A20242EA9352990235
:1012E8000B461446184621467B684FF000041A4600
:1012F8002346FEF76DFF03460C46FB600A4B5B680E
:101308001B0C03F0030301335B003B60FA683B6886
:10131800B2FBF3F3BB6002E0044BBB6000BFBB68E9
:1013280018461437BD46F0BD003802400024F400CA
:1013380000127A0080B400AF024B1B681846BD4605
:1013480080BC70470800002080B500AFFFF7F2FFAF
:101358000146054B9B689B0A03F00703034AD35CCD
:1013680021FA03F3184680BD00380240F81F000830
:1013780080B500AFFFF7DEFF0146054B9B685B0BAE
:1013880003F00703034AD35C21FA03F3184680BD30
:1013980000380240F81F000880B582B000AF7860BE
:1013A8007B68002B01D101233FE07B6893F839303B
:1013B800DBB2002B06D17B68002283F838207868DE
:1013C80000F0E4FC7B68242283F839207B681B68E2
:1013D800DA687B681B6822F40052DA60786800F0EB
:1013E8000BF97B681B681A697B681B6822F49042BA
:1013F8001A617B681B685A697B681B6822F02A029D
:101408005A617B681B68DA687B681B6842F4005283
:10141800DA607B680022DA637B68202283F839204F
:101428007B68202283F83A20002318460837BD46F7
:1014380080BD80B588B002AFF860B9603B601346E4
:10144800FB8000237B61FB6893F83930DBB2202BEB
:1014580040F08380BB68002B02D0FB88002B01D1B1
:1014680001237BE0FB6893F83830012B01D102237C
:1014780074E0FB68012283F83820FB680022DA63F5
:10148800FB68212283F83920FFF786F87861FB682A
:10149800FA889A84FB68FA88DA8442E0FB68DB8C75
:1014A8009BB2013B9AB2FB68DA84FB689B68B3F590
:1014B800805F22D13B6800937B6900228021F86815
:1014C80000F050F80346002B01D0032346E0BB6828
:1014D8003B613B691B881A46FB681B68C2F308021C
:1014E8005A60FB681B69002B03D1BB680233BB60E1
:1014F80017E0BB680133BB6013E03B6800937B696E
:1015080000228021F86800F02DF80346002B01D056
:10151800032323E0BB685A1CBA601A78FB681B686F
:101528005A60FB68DB8C9BB2002BB7D13B680093F9
:101538007B6900224021F86800F014F80346002B6C
:1015480001D003230AE0FB68202283F83920FB68D6
:10155800002283F83820002300E0022318461837B9
:10156800BD4680BD80B584B000AFF860B9603B600F
:101578001346FB712CE0BB69B3F1FF3F28D0BB6970
:10158800002B07D0FFF708F802463B68D31ABA6960
:101598009A421DD2FB681B68DA68FB681B6822F454
:1015A800D072DA60FB681B685A69FB681B6822F016
:1015B80001025A61FB68202283F83920FB68202247
:1015C80083F83A20FB68002283F8382003230FE0D1
:1015D800FB681B681A68BB681340BA689A420CBF5C
:1015E80001230023DBB21A46FB799A42C3D00023B9
:1015F80018461037BD4680BDB0B584B000AF7860DE
:101608000023FB607B681B681B69FB60FB6823F495
:101618004053FB607B68DB68FA681343FB607B68B8
:101628001B68FA681A617B681B68DB68FB60FB68EB
:1016380023F4164323F00C03FB607B689A687B68ED
:101648001B691A437B685B691A437B68DB69134330
:10165800FA681343FB607B681B68FA68DA607B688A
:101668001B685B69FB60FB6823F44073FB607B6865
:101678009B69FA681343FB607B681B68FA685A61C8
:101688007B68DB69B3F5004F40F0E4807B681B683A
:10169800AB4A934204D07B681B68AA4A93426CD138
:1016A800FFF766FE024613469B0013449A001A444D
:1016B8007B685B685B00B2FBF3F3A34AA2FB0323DE
:1016C8005B091C01FFF754FE024613469B001344B6
:1016D8009A001A447B685B685B00B2FBF3F5FFF77E
:1016E80047FE024613469B0013449A001A447B683F
:1016F8005B685B00B2FBF3F3934AA2FB03235B092D
:10170800642202FB03F3EB1ADB0032338E4AA2FB9E
:1017180003235B095B0003F4F8731C44FFF728FEFE
:10172800024613469B0013449A001A447B685B6880
:101738005B00B2FBF3F5FFF71BFE024613469B0066
:1017480013449A001A447B685B685B00B2FBF3F3AE
:101758007D4AA2FB03235B09642202FB03F3EB1A15
:10176800DB003233784AA2FB03235B0903F007024C
:101778007B681B6822449A6054E1FFF7E5FD024646
:1017880013469B0013449A001A447B685B685B000D
:10179800B2FBF3F36C4AA2FB03235B091C01FFF7BE
:1017A800D3FD024613469B0013449A001A447B68F3
:1017B8005B685B00B2FBF3F5FFF7C6FD0246134614
:1017C8009B0013449A001A447B685B685B00B2FB79
:1017D800F3F35D4AA2FB03235B09642202FB03F3D4
:1017E800EB1ADB003233584AA2FB03235B095B0088
:1017F80003F4F8731C44FFF7A7FD024613469B0049
:1018080013449A001A447B685B685B00B2FBF3F5EB
:10181800FFF79AFD024613469B0013449A001A44A8
:101828007B685B685B00B2FBF3F3474AA2FB0323C8
:101838005B09642202FB03F3EB1ADB003233424AF2
:10184800A2FB03235B0903F007027B681B682244A1
:101858009A60E7E07B681B68394A934204D07B684A
:101868001B68384A934271D1FFF782FD024613463E
:101878009B0013449A001A447B685B689B00B2FB88
:10188800F3F3314AA2FB03235B091C01FFF770FD48
:10189800024613469B0013449A001A447B685B680F
:1018A8009B00B2FBF3F5FFF763FD024613469B006E
:1018B80013449A001A447B685B689B00B2FBF3F3FD
:1018C800214AA2FB03235B09642202FB03F3EB1A00
:1018D8001B0132331C4AA2FB03235B0903F0F0030C
:1018E8001C44FFF745FD024613469B0013449A002B
:1018F8001A447B685B689B00B2FBF3F5FFF738FD81
:10190800024613469B0013449A001A447B685B689E
:101918009B00B2FBF3F30C4AA2FB03235B0964228E
:1019280002FB03F3EB1A1B013233074AA2FB032322
:101938005B0903F00F027B681B6822449A6071E020
:1019480000100140001401401F85EB51FFF7FCFC1B
:10195800024613469B0013449A001A447B685B684E
:101968009B00B2FBF3F3314AA2FB03235B091C0182
:10197800FFF7EAFC024613469B0013449A001A44F8
:101988007B685B689B00B2FBF3F5FFF7DDFC024662
:1019980013469B0013449A001A447B685B689B00BB
:1019A800B2FBF3F3214AA2FB03235B09642202FB87
:1019B80003F3EB1A1B0132331C4AA2FB03235B0916
:1019C80003F0F0031C44FFF7BFFC024613469B00DC
:1019D80013449A001A447B685B689B00B2FBF3F5DA
:1019E800FFF7B2FC024613469B0013449A001A44C0
:1019F8007B685B689B00B2FBF3F30C4AA2FB0323F2
:101A08005B09642202FB03F3EB1A1B013233074A1A
:101A1800A2FB03235B0903F00F027B681B682244C7
:101A28009A60FFE700BF1037BD46B0BD1F85EB5178
:101A380080B500AFFEF74CFD00F016F800F0E6F8B0
:101A480000F088F800F0B4F8642307220449054838
:101A5800FFF7EFFC4FF47A70FEF7A8FDF4E700BF3C
:101A6800AC1F00082C00002080B594B000AF002304
:101A7800BB60344B1B6C334A43F080531364314BC7
:101A88001B6C03F08053BB60BB6800237B602E4B4C
:101A98001B682D4A43F4404313602B4B1B6803F427
:101AA80040437B607B6802233B620123FB62102377
:101AB8003B630223BB630023FB6310233B644FF4A7
:101AC800A8737B640423BB640423FB6407F120032D
:101AD8001846FFF733F80346002B03D09B211B4819
:101AE80000F0FCF80F23FB6002233B6100237B61BD
:101AF8004FF48053BB610023FB6107F10C03022103
:101B08001846FFF75DFA0346002B03D0A9210F48BA
:101B180000F0E4F8FFF70EFC02460D4BA3FB02238E
:101B28009B091846FEF73BFE0420FEF745FE0022FF
:101B380000214FF0FF30FEF716FE00BF5037BD46BC
:101B480080BD00BF0038024000700040B41F00088C
:101B5800D34D621080B500AF124B134A1A60114B77
:101B68004FF416525A600F4B00229A600D4B002218
:101B7800DA600C4B00221A610A4B0C225A61094B9D
:101B880000229A61074B0022DA610648FFF704FC3D
:101B98000346002B03D0C621044800F09FF800BF7D
:101BA80080BD00BF2C00002000100140B41F0008B9
:101BB80080B500AF124B134A1A60114B4FF4E13253
:101BC8005A600F4B00229A600D4B0022DA600C4BD2
:101BD80000221A610A4B0C225A61094B00229A61B1
:101BE800074B0022DA610648FFF7D6FB0346002BB5
:101BF80003D0D921044800F071F800BF80BD00BFB0
:101C08006C00002000440040B41F000880B58AB072
:101C180000AF00233B612D4B1B6B2C4A43F00403A0
:101C280013632A4B1B6B03F004033B613B690023DE
:101C3800FB60264B1B6B254A43F080031363234B41
:101C48001B6B03F08003FB60FB680023BB601F4B2A
:101C58001B6B1E4A43F0010313631C4B1B6B03F001
:101C68000103BB60BB6800237B60184B1B6B174AE2
:101C780043F002031363154B1B6B03F002037B60F5
:101C88007B68002220211248FEF740FF4FF40053E2
:101C98007B61104BBB610023FB6107F114031946FC
:101CA8000D48FEF7B1FD20237B610123BB610023B2
:101CB800FB6100233B6207F1140319460448FEF751
:101CC800A3FD00BF2837BD4680BD00BF00380240D5
:101CD80000000240000021100008024080B483B0D8
:101CE80000AF78603960FEE780B582B000AF0023AE
:101CF8007B60254B5B6C244A43F480435364224B3E
:101D08005B6C03F480437B607B6800233B601E4B65
:101D18001B6C1D4A43F0805313641B4B1B6C03F070
:101D280080533B603B680720FEF712FD002200212C
:101D38006FF00B00FEF717FD002200216FF00A007C
:101D4800FEF711FD002200216FF00900FEF70BFDE0
:101D5800002200216FF00400FEF705FD002200219B
:101D68006FF00300FEF7FFFC002200216FF0010076
:101D7800FEF7F9FC002200214FF0FF30FEF7F3FCDC
:101D880000BF0837BD4680BD0038024080B58AB024
:101D980000AF78607B681B68244A93421FD10023F8
:101DA8003B61234B5B6C224A43F010035364204B86
:101DB8005B6C03F010033B613B694FF4C0637B61CC
:101DC8000223BB610123FB6103233B6207237B6280
:101DD80007F1140319461748FEF716FD22E07B6841
:101DE8001B68154A93421DD10023FB60104B1B6CE6
:101DF8000F4A43F4003313640D4B1B6C03F4003398
:101E0800FB60FB680C237B610223BB610123FB6140
:101E180003233B6207237B6207F114031946054835
:101E2800FEF7F2FC00BF2837BD4680BD0010014018
:101E380000380240000002400044004080B400AF77
:101E480000BFBD4680BC704780B400AFFEE780B4D9
:101E580000AFFEE780B400AFFEE780B400AFFEE756
:101E680080B400AF00BFBD4680BC704780B400AFEF
:101E780000BFBD4680BC704780B400AF00BFBD4600
:101E880080BC704780B500AFFEF774FBFEF7B0FC6E
:101E980000BF80BD80B400AF124B1B68114A43F0ED
:101EA800010313600F4B00229A600E4B1B680D4A0A
:101EB80023F0847323F4803313600A4B0A4A5A6070
:101EC800084B1B68074A23F480231360054B002244
:101ED800DA60064B4FF000629A6000BFBD4680BCD6
:101EE800704700BF003802401030002400ED00E0C9
:101EF800DFF834D0002103E00C4B5B584350043129
:101F08000B480C4B42189A42F6D30B4A02E00023C6
:101F180042F8043B094B9A42F9D3FFF7BBFF00F0A4
:101F280011F8FFF785FD7047000002201020000817
:101F3800000000200C0000200C000020AC00002055
:101F4800FEE7000070B50D4E0D4CA41BA410002533
:101F5800A54209D10B4E0C4C00F018F8A41BA41094
:101F68000025A54205D170BD56F8253098470135A2
:101F7800EEE756F8253098470135F2E708200008C3
:101F880008200008082000080C200008F8B500BF49
:101F9800F8BC08BC9E467047F8B500BFF8BC08BC42
:041FA8009E4670479A
:101FAC00557A656E65740A00433A5C5573657273B5
:101FBC005C4E6F7262695C446F63756D656E7473B1
:101FCC005C53544D33325C626C7565746F6F74681E
:101FDC005C5372635C6D61696E2E630000000000DF
:101FEC0000000000010203040607080900000000BD
:041FFC0001020304D7
:0820000008E2FF7F010000006F
:04200800BD0100080E
:04200C00990100082E
:0C20100010000000010000000024F4009B
:0400000508001EF9D8
:00000001FF
